{
    "contractName": "FactoryNFT",
    "abi": [
        {
            "inputs": [],
            "stateMutability": "nonpayable",
            "type": "constructor"
        },
        {
            "anonymous": false,
            "inputs": [
                {
                    "indexed": true,
                    "internalType": "address",
                    "name": "owner",
                    "type": "address"
                },
                {
                    "indexed": true,
                    "internalType": "address",
                    "name": "approved",
                    "type": "address"
                },
                {
                    "indexed": true,
                    "internalType": "uint256",
                    "name": "tokenId",
                    "type": "uint256"
                }
            ],
            "name": "Approval",
            "type": "event"
        },
        {
            "anonymous": false,
            "inputs": [
                {
                    "indexed": true,
                    "internalType": "address",
                    "name": "owner",
                    "type": "address"
                },
                {
                    "indexed": true,
                    "internalType": "address",
                    "name": "operator",
                    "type": "address"
                },
                {
                    "indexed": false,
                    "internalType": "bool",
                    "name": "approved",
                    "type": "bool"
                }
            ],
            "name": "ApprovalForAll",
            "type": "event"
        },
        {
            "anonymous": false,
            "inputs": [
                {
                    "indexed": true,
                    "internalType": "address",
                    "name": "from",
                    "type": "address"
                },
                {
                    "indexed": true,
                    "internalType": "address",
                    "name": "to",
                    "type": "address"
                },
                {
                    "indexed": true,
                    "internalType": "uint256",
                    "name": "tokenId",
                    "type": "uint256"
                }
            ],
            "name": "Transfer",
            "type": "event"
        },
        {
            "inputs": [
                {
                    "internalType": "address",
                    "name": "to",
                    "type": "address"
                },
                {
                    "internalType": "uint256",
                    "name": "tokenId",
                    "type": "uint256"
                }
            ],
            "name": "approve",
            "outputs": [],
            "stateMutability": "nonpayable",
            "type": "function"
        },
        {
            "inputs": [
                {
                    "internalType": "address",
                    "name": "owner",
                    "type": "address"
                }
            ],
            "name": "balanceOf",
            "outputs": [
                {
                    "internalType": "uint256",
                    "name": "",
                    "type": "uint256"
                }
            ],
            "stateMutability": "view",
            "type": "function"
        },
        {
            "inputs": [
                {
                    "internalType": "uint256",
                    "name": "tokenId",
                    "type": "uint256"
                }
            ],
            "name": "getApproved",
            "outputs": [
                {
                    "internalType": "address",
                    "name": "",
                    "type": "address"
                }
            ],
            "stateMutability": "view",
            "type": "function"
        },
        {
            "inputs": [
                {
                    "internalType": "address",
                    "name": "owner",
                    "type": "address"
                },
                {
                    "internalType": "address",
                    "name": "operator",
                    "type": "address"
                }
            ],
            "name": "isApprovedForAll",
            "outputs": [
                {
                    "internalType": "bool",
                    "name": "",
                    "type": "bool"
                }
            ],
            "stateMutability": "view",
            "type": "function"
        },
        {
            "inputs": [
                {
                    "internalType": "string",
                    "name": "tokenURI",
                    "type": "string"
                }
            ],
            "name": "mintNFT",
            "outputs": [
                {
                    "internalType": "uint256",
                    "name": "",
                    "type": "uint256"
                }
            ],
            "stateMutability": "nonpayable",
            "type": "function"
        },
        {
            "inputs": [],
            "name": "name",
            "outputs": [
                {
                    "internalType": "string",
                    "name": "",
                    "type": "string"
                }
            ],
            "stateMutability": "view",
            "type": "function"
        },
        {
            "inputs": [
                {
                    "internalType": "uint256",
                    "name": "tokenId",
                    "type": "uint256"
                }
            ],
            "name": "ownerOf",
            "outputs": [
                {
                    "internalType": "address",
                    "name": "",
                    "type": "address"
                }
            ],
            "stateMutability": "view",
            "type": "function"
        },
        {
            "inputs": [
                {
                    "internalType": "address",
                    "name": "from",
                    "type": "address"
                },
                {
                    "internalType": "address",
                    "name": "to",
                    "type": "address"
                },
                {
                    "internalType": "uint256",
                    "name": "tokenId",
                    "type": "uint256"
                }
            ],
            "name": "safeTransferFrom",
            "outputs": [],
            "stateMutability": "nonpayable",
            "type": "function"
        },
        {
            "inputs": [
                {
                    "internalType": "address",
                    "name": "from",
                    "type": "address"
                },
                {
                    "internalType": "address",
                    "name": "to",
                    "type": "address"
                },
                {
                    "internalType": "uint256",
                    "name": "tokenId",
                    "type": "uint256"
                },
                {
                    "internalType": "bytes",
                    "name": "_data",
                    "type": "bytes"
                }
            ],
            "name": "safeTransferFrom",
            "outputs": [],
            "stateMutability": "nonpayable",
            "type": "function"
        },
        {
            "inputs": [
                {
                    "internalType": "address",
                    "name": "operator",
                    "type": "address"
                },
                {
                    "internalType": "bool",
                    "name": "approved",
                    "type": "bool"
                }
            ],
            "name": "setApprovalForAll",
            "outputs": [],
            "stateMutability": "nonpayable",
            "type": "function"
        },
        {
            "inputs": [
                {
                    "internalType": "bytes4",
                    "name": "interfaceId",
                    "type": "bytes4"
                }
            ],
            "name": "supportsInterface",
            "outputs": [
                {
                    "internalType": "bool",
                    "name": "",
                    "type": "bool"
                }
            ],
            "stateMutability": "view",
            "type": "function"
        },
        {
            "inputs": [],
            "name": "symbol",
            "outputs": [
                {
                    "internalType": "string",
                    "name": "",
                    "type": "string"
                }
            ],
            "stateMutability": "view",
            "type": "function"
        },
        {
            "inputs": [
                {
                    "internalType": "uint256",
                    "name": "tokenId",
                    "type": "uint256"
                }
            ],
            "name": "tokenURI",
            "outputs": [
                {
                    "internalType": "string",
                    "name": "",
                    "type": "string"
                }
            ],
            "stateMutability": "view",
            "type": "function"
        },
        {
            "inputs": [
                {
                    "internalType": "address",
                    "name": "from",
                    "type": "address"
                },
                {
                    "internalType": "address",
                    "name": "to",
                    "type": "address"
                },
                {
                    "internalType": "uint256",
                    "name": "tokenId",
                    "type": "uint256"
                }
            ],
            "name": "transferFrom",
            "outputs": [],
            "stateMutability": "nonpayable",
            "type": "function"
        }
    ],
    "bytecode": "60806040523480156200001157600080fd5b506040518060400160405280601581526020017f466163746f7279204e465420666f7220417374617200000000000000000000008152506040518060400160405280600381526020016213919560ea1b815250816000908162000075919062000132565b50600162000084828262000132565b505050620001fe565b634e487b7160e01b600052604160045260246000fd5b600181811c90821680620000b857607f821691505b602082108103620000d957634e487b7160e01b600052602260045260246000fd5b50919050565b601f8211156200012d57600081815260208120601f850160051c81016020861015620001085750805b601f850160051c820191505b81811015620001295782815560010162000114565b5050505b505050565b81516001600160401b038111156200014e576200014e6200008d565b62000166816200015f8454620000a3565b84620000df565b602080601f8311600181146200019e5760008415620001855750858301515b600019600386901b1c1916600185901b17855562000129565b600085815260208120601f198616915b82811015620001cf57888601518255948401946001909101908401620001ae565b5085821015620001ee5787850151600019600388901b60f8161c191681555b5050505050600190811b01905550565b6116f0806200020e6000396000f3fe608060405234801561001057600080fd5b50600436106100ea5760003560e01c806370a082311161008c578063b88d4fde11610066578063b88d4fde146101e1578063c87b56dd146101f4578063e985e9c514610207578063fb37e8831461021a57600080fd5b806370a08231146101a557806395d89b41146101c6578063a22cb465146101ce57600080fd5b8063095ea7b3116100c8578063095ea7b31461015757806323b872dd1461016c57806342842e0e1461017f5780636352211e1461019257600080fd5b806301ffc9a7146100ef57806306fdde0314610117578063081812fc1461012c575b600080fd5b6101026100fd3660046110a7565b61022d565b60405190151581526020015b60405180910390f35b61011f61027f565b60405161010e9190611114565b61013f61013a366004611127565b610311565b6040516001600160a01b03909116815260200161010e565b61016a61016536600461115c565b61039e565b005b61016a61017a366004611186565b6104b3565b61016a61018d366004611186565b6104e4565b61013f6101a0366004611127565b6104ff565b6101b86101b33660046111c2565b610576565b60405190815260200161010e565b61011f6105fd565b61016a6101dc3660046111dd565b61060c565b61016a6101ef3660046112a5565b6106d0565b61011f610202366004611127565b610708565b610102610215366004611321565b61087e565b6101b8610228366004611354565b6108ac565b60006001600160e01b031982166380ac58cd60e01b148061025e57506001600160e01b03198216635b5e139f60e01b145b8061027957506301ffc9a760e01b6001600160e01b03198316145b92915050565b60606000805461028e9061139d565b80601f01602080910402602001604051908101604052809291908181526020018280546102ba9061139d565b80156103075780601f106102dc57610100808354040283529160200191610307565b820191906000526020600020905b8154815290600101906020018083116102ea57829003601f168201915b5050505050905090565b600061031c826108dd565b6103825760405162461bcd60e51b815260206004820152602c60248201527f4552433732313a20617070726f76656420717565727920666f72206e6f6e657860448201526b34b9ba32b73a103a37b5b2b760a11b60648201526084015b60405180910390fd5b506000908152600460205260409020546001600160a01b031690565b60006103a9826104ff565b9050806001600160a01b0316836001600160a01b0316036104165760405162461bcd60e51b815260206004820152602160248201527f4552433732313a20617070726f76616c20746f2063757272656e74206f776e656044820152603960f91b6064820152608401610379565b336001600160a01b03821614806104325750610432813361087e565b6104a45760405162461bcd60e51b815260206004820152603860248201527f4552433732313a20617070726f76652063616c6c6572206973206e6f74206f7760448201527f6e6572206e6f7220617070726f76656420666f7220616c6c00000000000000006064820152608401610379565b6104ae83836108fa565b505050565b6104bd3382610968565b6104d95760405162461bcd60e51b8152600401610379906113d7565b6104ae838383610a2a565b6104ae838383604051806020016040528060008152506106d0565b6000818152600260205260408120546001600160a01b0316806102795760405162461bcd60e51b815260206004820152602960248201527f4552433732313a206f776e657220717565727920666f72206e6f6e657869737460448201526832b73a103a37b5b2b760b91b6064820152608401610379565b60006001600160a01b0382166105e15760405162461bcd60e51b815260206004820152602a60248201527f4552433732313a2062616c616e636520717565727920666f7220746865207a65604482015269726f206164647265737360b01b6064820152608401610379565b506001600160a01b031660009081526003602052604090205490565b60606001805461028e9061139d565b336001600160a01b038316036106645760405162461bcd60e51b815260206004820152601960248201527f4552433732313a20617070726f766520746f2063616c6c6572000000000000006044820152606401610379565b3360008181526005602090815260408083206001600160a01b03871680855290835292819020805460ff191686151590811790915590519081529192917f17307eab39ab6107e8899845ad3d59bd9653f200f220920489ca2b5937696c31910160405180910390a35050565b6106da3383610968565b6106f65760405162461bcd60e51b8152600401610379906113d7565b61070284848484610bca565b50505050565b6060610713826108dd565b6107795760405162461bcd60e51b815260206004820152603160248201527f45524337323155524953746f726167653a2055524920717565727920666f72206044820152703737b732bc34b9ba32b73a103a37b5b2b760791b6064820152608401610379565b600082815260066020526040812080546107929061139d565b80601f01602080910402602001604051908101604052809291908181526020018280546107be9061139d565b801561080b5780601f106107e05761010080835404028352916020019161080b565b820191906000526020600020905b8154815290600101906020018083116107ee57829003601f168201915b50505050509050600061082960408051602081019091526000815290565b9050805160000361083b575092915050565b81511561086d578082604051602001610855929190611428565b60405160208183030381529060405292505050919050565b61087684610bfd565b949350505050565b6001600160a01b03918216600090815260056020908152604080832093909416825291909152205460ff1690565b60006108bc600780546001019055565b60006108c760075490565b90506108d33382610cd5565b6102798184610e08565b6000908152600260205260409020546001600160a01b0316151590565b600081815260046020526040902080546001600160a01b0319166001600160a01b038416908117909155819061092f826104ff565b6001600160a01b03167f8c5be1e5ebec7d5bd14f71427d1e84f3dd0314c0f7b2291e5b200ac8c7c3b92560405160405180910390a45050565b6000610973826108dd565b6109d45760405162461bcd60e51b815260206004820152602c60248201527f4552433732313a206f70657261746f7220717565727920666f72206e6f6e657860448201526b34b9ba32b73a103a37b5b2b760a11b6064820152608401610379565b60006109df836104ff565b9050806001600160a01b0316846001600160a01b03161480610a1a5750836001600160a01b0316610a0f84610311565b6001600160a01b0316145b806108765750610876818561087e565b826001600160a01b0316610a3d826104ff565b6001600160a01b031614610aa55760405162461bcd60e51b815260206004820152602960248201527f4552433732313a207472616e73666572206f6620746f6b656e2074686174206960448201526839903737ba1037bbb760b91b6064820152608401610379565b6001600160a01b038216610b075760405162461bcd60e51b8152602060048201526024808201527f4552433732313a207472616e7366657220746f20746865207a65726f206164646044820152637265737360e01b6064820152608401610379565b610b126000826108fa565b6001600160a01b0383166000908152600360205260408120805460019290610b3b90849061146d565b90915550506001600160a01b0382166000908152600360205260408120805460019290610b69908490611480565b909155505060008181526002602052604080822080546001600160a01b0319166001600160a01b0386811691821790925591518493918716917fddf252ad1be2c89b69c2b068fc378daa952ba7f163c4a11628f55a4df523b3ef91a4505050565b610bd5848484610a2a565b610be184848484610e8c565b6107025760405162461bcd60e51b815260040161037990611493565b6060610c08826108dd565b610c6c5760405162461bcd60e51b815260206004820152602f60248201527f4552433732314d657461646174613a2055524920717565727920666f72206e6f60448201526e3732bc34b9ba32b73a103a37b5b2b760891b6064820152608401610379565b6000610c8360408051602081019091526000815290565b90506000815111610ca35760405180602001604052806000815250610cce565b80610cad84610f8d565b604051602001610cbe929190611428565b6040516020818303038152906040525b9392505050565b6001600160a01b038216610d2b5760405162461bcd60e51b815260206004820181905260248201527f4552433732313a206d696e7420746f20746865207a65726f20616464726573736044820152606401610379565b610d34816108dd565b15610d815760405162461bcd60e51b815260206004820152601c60248201527f4552433732313a20746f6b656e20616c7265616479206d696e746564000000006044820152606401610379565b6001600160a01b0382166000908152600360205260408120805460019290610daa908490611480565b909155505060008181526002602052604080822080546001600160a01b0319166001600160a01b03861690811790915590518392907fddf252ad1be2c89b69c2b068fc378daa952ba7f163c4a11628f55a4df523b3ef908290a45050565b610e11826108dd565b610e745760405162461bcd60e51b815260206004820152602e60248201527f45524337323155524953746f726167653a2055524920736574206f66206e6f6e60448201526d32bc34b9ba32b73a103a37b5b2b760911b6064820152608401610379565b60008281526006602052604090206104ae8282611533565b60006001600160a01b0384163b15610f8257604051630a85bd0160e11b81526001600160a01b0385169063150b7a0290610ed09033908990889088906004016115f3565b6020604051808303816000875af1925050508015610f0b575060408051601f3d908101601f19168201909252610f0891810190611630565b60015b610f68573d808015610f39576040519150601f19603f3d011682016040523d82523d6000602084013e610f3e565b606091505b508051600003610f605760405162461bcd60e51b815260040161037990611493565b805181602001fd5b6001600160e01b031916630a85bd0160e11b149050610876565b506001949350505050565b606081600003610fb45750506040805180820190915260018152600360fc1b602082015290565b8160005b8115610fde5780610fc88161164d565b9150610fd79050600a8361167c565b9150610fb8565b60008167ffffffffffffffff811115610ff957610ff9611219565b6040519080825280601f01601f191660200182016040528015611023576020820181803683370190505b5090505b84156108765761103860018361146d565b9150611045600a86611690565b611050906030611480565b60f81b818381518110611065576110656116a4565b60200101906001600160f81b031916908160001a905350611087600a8661167c565b9450611027565b6001600160e01b0319811681146110a457600080fd5b50565b6000602082840312156110b957600080fd5b8135610cce8161108e565b60005b838110156110df5781810151838201526020016110c7565b50506000910152565b600081518084526111008160208601602086016110c4565b601f01601f19169290920160200192915050565b602081526000610cce60208301846110e8565b60006020828403121561113957600080fd5b5035919050565b80356001600160a01b038116811461115757600080fd5b919050565b6000806040838503121561116f57600080fd5b61117883611140565b946020939093013593505050565b60008060006060848603121561119b57600080fd5b6111a484611140565b92506111b260208501611140565b9150604084013590509250925092565b6000602082840312156111d457600080fd5b610cce82611140565b600080604083850312156111f057600080fd5b6111f983611140565b91506020830135801515811461120e57600080fd5b809150509250929050565b634e487b7160e01b600052604160045260246000fd5b600067ffffffffffffffff8084111561124a5761124a611219565b604051601f8501601f19908116603f0116810190828211818310171561127257611272611219565b8160405280935085815286868601111561128b57600080fd5b858560208301376000602087830101525050509392505050565b600080600080608085870312156112bb57600080fd5b6112c485611140565b93506112d260208601611140565b925060408501359150606085013567ffffffffffffffff8111156112f557600080fd5b8501601f8101871361130657600080fd5b6113158782356020840161122f565b91505092959194509250565b6000806040838503121561133457600080fd5b61133d83611140565b915061134b60208401611140565b90509250929050565b60006020828403121561136657600080fd5b813567ffffffffffffffff81111561137d57600080fd5b8201601f8101841361138e57600080fd5b6108768482356020840161122f565b600181811c908216806113b157607f821691505b6020821081036113d157634e487b7160e01b600052602260045260246000fd5b50919050565b60208082526031908201527f4552433732313a207472616e736665722063616c6c6572206973206e6f74206f6040820152701ddb995c881b9bdc88185c1c1c9bdd9959607a1b606082015260800190565b6000835161143a8184602088016110c4565b83519083019061144e8183602088016110c4565b01949350505050565b634e487b7160e01b600052601160045260246000fd5b8181038181111561027957610279611457565b8082018082111561027957610279611457565b60208082526032908201527f4552433732313a207472616e7366657220746f206e6f6e20455243373231526560408201527131b2b4bb32b91034b6b83632b6b2b73a32b960711b606082015260800190565b601f8211156104ae57600081815260208120601f850160051c8101602086101561150c5750805b601f850160051c820191505b8181101561152b57828155600101611518565b505050505050565b815167ffffffffffffffff81111561154d5761154d611219565b6115618161155b845461139d565b846114e5565b602080601f831160018114611596576000841561157e5750858301515b600019600386901b1c1916600185901b17855561152b565b600085815260208120601f198616915b828110156115c5578886015182559484019460019091019084016115a6565b50858210156115e35787850151600019600388901b60f8161c191681555b5050505050600190811b01905550565b6001600160a01b0385811682528416602082015260408101839052608060608201819052600090611626908301846110e8565b9695505050505050565b60006020828403121561164257600080fd5b8151610cce8161108e565b60006001820161165f5761165f611457565b5060010190565b634e487b7160e01b600052601260045260246000fd5b60008261168b5761168b611666565b500490565b60008261169f5761169f611666565b500690565b634e487b7160e01b600052603260045260246000fdfea26469706673582212208e91542a959fa27bbb900087569f7c6df103ebcf5d3d2bae005b10b51a6b943064736f6c63430008130033",
    "sourcePath": "/home/gluneau/GitHub/astar/nftfactory/contracts/factoryNFT.sol",
    "compiler": {
        "name": "solc",
        "version": "0.8.19+commit.7dd6d404"
    },
    "functionHashes": {
        "approve(address,uint256)": "095ea7b3",
        "balanceOf(address)": "70a08231",
        "getApproved(uint256)": "081812fc",
        "isApprovedForAll(address,address)": "e985e9c5",
        "mintNFT(string)": "fb37e883",
        "name()": "06fdde03",
        "ownerOf(uint256)": "6352211e",
        "safeTransferFrom(address,address,uint256)": "42842e0e",
        "safeTransferFrom(address,address,uint256,bytes)": "b88d4fde",
        "setApprovalForAll(address,bool)": "a22cb465",
        "supportsInterface(bytes4)": "01ffc9a7",
        "symbol()": "95d89b41",
        "tokenURI(uint256)": "c87b56dd",
        "transferFrom(address,address,uint256)": "23b872dd"
    },
    "gasEstimates": {
        "creation": {
            "codeDepositCost": "1174400",
            "executionCost": "infinite",
            "totalCost": "infinite"
        },
        "external": {
            "approve(address,uint256)": "infinite",
            "balanceOf(address)": "2612",
            "getApproved(uint256)": "4799",
            "isApprovedForAll(address,address)": "infinite",
            "mintNFT(string)": "infinite",
            "name()": "infinite",
            "ownerOf(uint256)": "2645",
            "safeTransferFrom(address,address,uint256)": "infinite",
            "safeTransferFrom(address,address,uint256,bytes)": "infinite",
            "setApprovalForAll(address,bool)": "26692",
            "supportsInterface(bytes4)": "534",
            "symbol()": "infinite",
            "tokenURI(uint256)": "infinite",
            "transferFrom(address,address,uint256)": "infinite"
        }
    }
}